:100000000C9463000C948B000C948B000C948B006C
:100010000C948B000C948B000C948B000C948B0034
:100020000C948B000C948B000C948B000C948B0024
:100030000C948B000C948B000C948B000C948B0014
:100040000C9480060C948B000C944E060C9428069D
:100050000C948B000C948B000C948B000C948B00F4
:100060000C948B000C948B000000000024002700EF
:100070002A0000000000250028002B0000000000DE
:1000800023002600290004040404040404040202DA
:100090000202020203030303030301020408102007
:1000A0004080010204081020010204081020000012
:1000B0000008000201000003040700000000000027
:1000C0000000CA06D30911241FBECFEFD8E0DEBF5F
:1000D000CDBF11E0A0E0B1E0E0EFF9E102C0059092
:1000E0000D92A236B107D9F722E0A2E6B1E001C035
:1000F0001D92A832B207E1F710E0C2E6D0E004C0DA
:100100002197FE010E94EA0AC136D107C9F70E9471
:1001100003070C94EB0C0C940000AF92BF92CF92AB
:10012000DF92EF92FF920F931F93CF93DF936C01B7
:100130007B018B01040F151FEB015E01AE18BF0898
:10014000C017D10759F06991D601ED91FC9101904A
:10015000F081E02DC6010995892B79F7C501DF9162
:10016000CF911F910F91FF90EF90DF90CF90BF90B4
:10017000AF900895FC01538D448D252F30E0842FDE
:1001800090E0821B930B541710F0CF9608950197BF
:100190000895FC01918D828D981761F0A28DAE0FAC
:1001A000BF2FB11D5D968C91928D9F5F9F73928F33
:1001B00090E008958FEF9FEF0895FC01918D828D5F
:1001C000981731F0828DE80FF11D858D90E008952C
:1001D0008FEF9FEF0895FC01918D228D892F90E084
:1001E000805C9F4F821B91098F739927089581E846
:1001F00091E00E94EB0021E0892B09F420E0822F9E
:10020000089580E090E0892B29F00E94F700811189
:100210000C9400000895FC01A48DA80FB92FB11D06
:10022000A35ABF4F2C91848D90E001968F7399272C
:10023000848FA689B7892C93A089B1898C9183700A
:1002400080648C93938D848D981306C00288F38903
:10025000E02D80818F7D80830895EF92FF920F9330
:100260001F93CF93DF93EC0181E0888F9B8D8C8D62
:1002700098131AC0E889F989808185FF15C09FB756
:10028000F894EE89FF896083E889F9898081837019
:10029000806480839FBF81E090E0DF91CF911F91C8
:1002A0000F91FF90EF900895F62E0B8D10E00F5FE9
:1002B0001F4F0F731127E02E8C8D8E110CC00FB6BF
:1002C00007FCFACFE889F989808185FFF5CFCE0157
:1002D0000E940B01F1CFEB8DEC0FFD2FF11DE35AC6
:1002E000FF4FF0829FB7F8940B8FEA89FB898081DA
:1002F0008062CFCFCF93DF93EC01888D8823B9F054
:10030000AA89BB89E889F9898C9185FD03C0808120
:1003100086FD0DC00FB607FCF7CF8C9185FFF2CF9D
:10032000808185FFEDCFCE010E940B01E9CFDF91E7
:10033000CF910895833081F028F4813099F0823094
:10034000A9F008958730A9F08830C9F08430B1F45D
:10035000809180008F7D03C0809180008F77809393
:100360008000089584B58F7784BD089584B58F7D0E
:10037000FBCF8091B0008F778093B000089580917B
:10038000B0008F7DF9CFCF93DF93282F30E0F901B4
:10039000E255FF4F8491F901E656FF4FD491F901E0
:1003A000EA57FF4FC491CC23A1F081110E949A011A
:1003B000EC2FF0E0EE0FFF1FE458FF4FA591B49132
:1003C000EC91ED2381E090E009F480E0DF91CF91A2
:1003D000089580E090E0FACF1F93CF93DF93282F0A
:1003E00030E0F901E255FF4F8491F901E656FF4FE5
:1003F000D491F901EA57FF4FC491CC23A9F0162FED
:1004000081110E949A01EC2FF0E0EE0FFF1FEE58D1
:10041000FF4FA591B4918FB7F894EC91111108C0DA
:10042000D095DE23DC938FBFDF91CF911F9108958C
:10043000DE2BF8CFCF93DF9390E0FC01E656FF4F21
:1004400024918A579F4FFC0184918823C9F090E042
:10045000880F991FFC01E859FF4FA591B491FC0149
:10046000EE58FF4FC591D49161110DC09FB7F8941C
:100470008C91209582238C938881282328839FBF89
:10048000DF91CF910895623051F49FB7F8943C9179
:10049000822F809583238C93E8812E2BEFCF8FB70B
:1004A000F894EC912E2B2C938FBFEACF1F93CF9310
:1004B000DF93182FEB0161E00E941A02209739F4B4
:1004C00060E0812FDF91CF911F910C94EC01CF3F21
:1004D000D10511F461E0F5CFE12FF0E0E255FF4FD7
:1004E000E491E33031F140F4E130B1F0E230E1F099
:1004F000C038D1057CF7E4CFE73029F1E83059F175
:10050000E430B1F780918000806280938000D093C6
:100510008B00C0938A0004C084B5806884BDC7BDC9
:10052000DF91CF911F91089584B5806284BDC8BDCD
:10053000F7CF80918000806880938000D0938900FD
:10054000C0938800EDCF8091B00080688093B000A8
:10055000C093B300E5CF8091B00080628093B0007B
:10056000C093B400DDCF8E50806480937C00809176
:100570007A00806480937A0080917A0086FDFCCFB7
:10058000809178009091790008953FB7F894809118
:10059000670190916801A0916901B0916A0126B547
:1005A000A89B05C02F3F19F00196A11DB11D3FBFAB
:1005B000BA2FA92F982F8827BC01CD01620F711D7A
:1005C000811D911D42E0660F771F881F991F4A9574
:1005D000D1F708952FB7F894609163017091640189
:1005E00080916501909166012FBF08950F931F932D
:1005F0000E94EA026093890170938A0180938B01C3
:1006000090938C0181E891E00E94C90097FF1DC082
:100610000E94EA020091890110918A0120918B01C8
:1006200030918C01601B710B820B930B0091850143
:100630001091860120918701309188016017710720
:1006400082079307F8F28FEF9FEF1F910F910895A4
:100650001F93CF93DF9380910101882309F45DC03C
:1006600080918001882309F451C08FE00E94B30279
:100670009C01A1E0BFEF0E94DB0AD0E06130714035
:100680008C4F9F4F0CF440C08FE00E94B3029C013E
:10069000A1E0BFEF0E94DB0ADFEF6F3F73408105EF
:1006A000910594F58FE00E94B3029C01A1E0BFEF99
:1006B0000E94DB0A2FEF33E040E050E00E94540A32
:1006C000DA01C90181509F4FAF4FBF4FD82FC92FBB
:1006D0006FEF70E082E10E9456021091000160E02D
:1006E00070E0112311F06D2F7C2F89E00E945602DB
:1006F000112311F0D0E0C0E06D2F7C2F8AE0DF9154
:10070000CF911F910C945602C0E0E2CFD0917C01B2
:10071000C0917D0170E060E0DDCF60E089E00E9483
:10072000EC0160E08AE0DF91CF911F910C94EC0125
:10073000FC0101900020E9F73197AF01481B590BEC
:10074000BC0181E891E00C948D00CF93DF930E946F
:100750009803EC018AE191E00E9498038C0F9D1FA1
:10076000DF91CF910895AF92BF92CF92DF92EF9237
:10077000FF920F931F93CF93DF93DC01CD90DC901A
:100780001197C114D10439F01496CD91DC918C01EC
:100790007601209761F4DF91CF911F910F91FF9027
:1007A000EF90DF90CF90BF90AF9008957501570103
:1007B000BFEFAB1ABB0AF7018081082E000C990B22
:1007C0000E94380A892B91F72197CC0DDD1D888175
:1007D000082E000C990B0E94380A892B29F0CE159F
:1007E000DF0510F02197F3CFAE014F5F5F4F4E1939
:1007F0005F09D80115965C934E931497CE14DF04CD
:1008000020F4B701C6010E94D20CD801ED91FC91F1
:10081000119714968D919C91E80FF91F1082BBCF10
:100820000F931F93CF93DF93EC01888199810097F9
:1008300059F02A813B812617370730F081E0DF919C
:10084000CF911F910F9108958B016F5F7F4F0E9491
:10085000150C009759F0998388831B830A832C8198
:100860003D81232B59F7FC011082E8CF80E0E7CFD0
:10087000EF92FF920F931F93CF93DF936115710552
:1008800041F480E0DF91CF911F910F91FF90EF90A5
:10089000089541155105B1F07B01EC010C811D81DA
:1008A000040F151FB8010E941004882351F32881FA
:1008B00039818C819D81B701820F931F0E94E40CC6
:1008C0001D830C8381E0DECFCF93DF93EC01888121
:1008D0009981009711F00E948C0B198218821D8259
:1008E0001C821B821A82DF91CF910895CF93DF93F0
:1008F000EC01FB0101900020E9F73197AF01461BA5
:10090000570B0E943804811103C0CE010E94640479
:10091000CE01DF91CF910895CF93DF93EC01FB01DE
:1009200044815581608171810E943804811103C026
:10093000CE010E946404CE01DF91CF910895EF9221
:10094000FF920F931F93CF93DF93EC017B018A01FA
:10095000BA010E94100481110BC0CE010E946404F0
:10096000CE01DF91CF911F910F91FF90EF900895ED
:100970001D830C83B701888199810E94E40CF0CF1C
:10098000EF92FF920F931F93CF93DF93CDB7DEB714
:1009900062970FB6F894DEBF0FBECDBF8C01CB01BE
:1009A000F8011182108213821282158214824AE0A9
:1009B0009E012F5F3F4F7901B9010E94FE09F701A7
:1009C00001900020E9F73197AF014E195F09B70197
:1009D000C8010E949F0462960FB6F894DEBF0FBE56
:1009E000CDBFDF91CF911F910F91FF90EF900895B0
:1009F000FB0101900020E9F73197AF01461B570B2F
:100A00000C949F04FC0180819181009711F00C945B
:100A10008C0B0895CF92DF92EF92FF920F931F936A
:100A2000CF93DF93CDB7DEB7A4970FB6F894DEBFB0
:100A30000FBECDBF8091800160917C0170917D01DE
:100A4000882379F18FE00E94B3029C01A1E0BFEFFF
:100A50000E94DB0A613071408C4F9F4F0CF4B4C090
:100A60008FE00E94B3029C01A1E0BFEF0E94DB0A6D
:100A70006F3F7340810591050CF0A9C08FE00E9483
:100A8000B3029C01A1E0BFEF0E94DB0A2FEF33E02D
:100A900040E050E00E94540A21503F4F4F4F5F4FBB
:100AA000B901CE0149960E94C0046091800170E0B6
:100AB000CE0143960E94C0046091000170E0CE0117
:100AC0000D960E94C0046091010170E0CE0107966E
:100AD0000E94C0041A8219821C821B821E821D82FF
:100AE0006DE171E0CE0101960E94F804BE01695FDC
:100AF0007F4FCE0101960E948C046EE171E00E944E
:100B00007604BE01635F7F4F0E948C046EE171E04A
:100B10000E947604BE016D5E7F4F0E948C046EE1E0
:100B200071E00E947604BE01675E7F4F0E948C04D4
:100B30006BE171E00E94760418A21F8E1AA219A21E
:100B40001CA21BA27E01FFE1EF0EF11C8E159F057A
:100B500059F0FC01608171816115710529F04481B2
:100B60005581C7010E949F04CE0101960E94020593
:100B7000CE0107960E940205CE010D960E94020545
:100B8000CE0143960E940205CE0149960E940205BD
:100B9000CBA0DCA080912202909123020F8D18A19E
:100BA000C816D90671F560911E0270911F020115D9
:100BB0001105C9F06115710569F4C114D104B1F1D1
:100BC000F801808190E01BC070E060E06ACF6FEFB9
:100BD00070E067CFC8010E94DB0C11C08EE192E08B
:100BE0000E94640417C06115710501F1C114D1049C
:100BF000E9F0FB01808190E0919581959109892B25
:100C0000A9F00115110551F3A601B8018EE192E09A
:100C10000E949F044BA15CA16F8D78A181E891E0B7
:100C20000E948D0081E891E00E947A01C7010E9434
:100C30000205A4960FB6F894DEBF0FBECDBFDF91BC
:100C4000CF911F910F91FF90EF90DF90CF9008957B
:100C50001F920F920FB60F9211242F933F934F9331
:100C60005F936F937F938F939F93AF93BF93EF9314
:100C7000FF9381E891E00E940B01FF91EF91BF91FA
:100C8000AF919F918F917F916F915F914F913F9124
:100C90002F910F900FBE0F901F9018951F920F92DB
:100CA0000FB60F9211242F938F939F93EF93FF937F
:100CB000E0919101F09192018081E0919701F09192
:100CC000980182FD1BC0908180919A018F5F8F7384
:100CD00020919B01821741F0E0919A01F0E0EF57DB
:100CE000FE4F958F80939A01FF91EF919F918F9185
:100CF0002F910F900FBE0F901F9018958081F4CF09
:100D00001F920F920FB60F9211242F933F938F9340
:100D10009F93AF93BF938091630190916401A091E1
:100D20006501B09166013091620123E0230F2D37F8
:100D300058F50196A11DB11D2093620180936301B6
:100D400090936401A0936501B0936601809167015F
:100D500090916801A0916901B0916A010196A11D6D
:100D6000B11D8093670190936801A0936901B093CE
:100D70006A01BF91AF919F918F913F912F910F90F9
:100D80000FBE0F901F90189526E8230F0296A11D05
:100D9000B11DD2CFE1E8F1E01382128288EE93E038
:100DA000A0E0B0E084839583A683B7838CE091E0D4
:100DB0009183808385EC90E09587848784EC90E034
:100DC0009787868780EC90E0918B808B81EC90E018
:100DD000938B828B82EC90E0958B848B86EC90E0F9
:100DE000978B868B118E128E138E148EEEE1F2E0AD
:100DF0001182108213821282158214826CE171E0DA
:100E0000CF010C94F804CF93DF93CDB7DEB72C97C6
:100E10000FB6F894DEBF0FBECDBF789484B5826064
:100E200084BD84B5816084BD85B5826085BD85B58E
:100E3000816085BD80916E00816080936E0010920C
:100E40008100809181008260809381008091810087
:100E50008160809381008091800081608093800018
:100E60008091B10084608093B1008091B000816076
:100E70008093B00080917A00846080937A008091A2
:100E80007A00826080937A0080917A0081608093FA
:100E90007A0080917A00806880937A001092C10075
:100EA00060E08FE00E941A0260E08EE00E941A0269
:100EB00062E08DE00E941A0262E08CE00E941A0259
:100EC00061E082E10E941A0261E089E00E941A0258
:100ED00061E08AE00E941A02E0919101F091920192
:100EE00082E08083E0918D01F0918E011082E0918B
:100EF0008F01F09190018FEC808310929901E09125
:100F00009501F091960186E08083E0919301F09144
:100F10009401808180618083E0919301F09194013C
:100F2000808188608083E0919301F09194018081B9
:100F300080688083E0919301F091940180818F7D9E
:100F400080838DE00E94C3019093770180937601A6
:100F50008CE00E94C301909371018093700160E066
:100F600089E00E94EC0160E08AE00E94EC014424E8
:100F70004A9493E0592E612C712C81E891E00E94F3
:100F8000EB00181619060CF0E0C018861F821A86AE
:100F900019861C861B866CE171E0CE0107960E94C3
:100FA000F8040E94F60297FD0FC08A30910561F0A7
:100FB00089831A8241E050E0BE016F5F7F4FCE010E
:100FC00007960E943804EDCFCE0107960E94B30326
:100FD0000B851C850430110508F4A7C08090010121
:100FE0009090000130908001A0907C01B0907D0134
:100FF0008F819885FC01009721F410926B01EBE63C
:10100000F1E0DD24D3942081213309F0D12CD0925A
:101010000101FC013196009721F410926B01EBE67F
:10102000F1E0EE24E3942081213309F0E12CE092F9
:101030000001009709F07EC010926B018BE691E0F1
:10104000FF24F394FC018081813309F0F12CF092AC
:1010500080011A8219821C821B821E821D826CE111
:1010600071E0CE0101960E94F8048B859C85843046
:10107000910510F18017910708F48C01EF81F88534
:10108000E00FF11F208010826F8178856D5F7F4FA8
:1010900009F452C0FB0101900020E9F73197AF013C
:1010A000461B570BCE0101960E949F048F819885A5
:1010B000080F191FF8012082CE0101960E94B30388
:1010C0008D819E81892B71F089819A810097C9F168
:1010D0000E94D7096F3F710509F020F470937D01DC
:1010E00060937C01CE0101960E9402058D100BC019
:1010F0009E1009C03F1007C080917C0190917D0136
:10110000A816B90691F082E391E00E9498034B85FE
:101110005C856F81788581E891E00E948D008AE18D
:1011200091E00E9498030E942803CE0107960E9436
:10113000020523CF029684CFCE0101960E9464045B
:10114000B5CF60E070E0CB01C5CF8EE00E94B30266
:101150009C01A1E0BFEF0E94DB0A613071408C4F1F
:101160009F4F0CF0D4C0109201010E940A058DE03F
:101170000E94C3018C01892BA9F580917601909181
:101180007701019779F50E94EA02809072019090B0
:101190007301A0907401B0907501681979098A09EA
:1011A0009B096333710581059105E0F08091800111
:1011B00091E089278093800188E491E00E94980360
:1011C000809180018111E9C083E291E00E94A50332
:1011D0000E94EA026093720170937301809374011C
:1011E0009093750110937701009376018CE00E9433
:1011F000C3018C01892BA9F5809170019091710137
:10120000019779F50E94EA0280906C0190906D013F
:10121000A0906E01B0906F01681979098A099B0945
:101220006333710581059105E0F080910001E1E0F3
:101230008E278093000187E591E00E9498038091BA
:1012400000018111ADC08DE291E00E94A5030E94D2
:10125000EA0260936C0170936D0180936E0190932C
:101260006F0110937101009370010E9428030E9486
:10127000EA02009178011091790120917A01309170
:101280007B01601B710B820B930B683E73408105E1
:10129000910560F00E94EA026093780170937901F1
:1012A00080937A0190937B010E940A050E94C502F7
:1012B0006B017C0182E3882E912CA12CB12C0E9421
:1012C000C5026C197D098E099F09683E734081052E
:1012D0009105A8F321E0821A9108A108B10888EECF
:1012E000C80E83E0D81EE11CF11C81149104A104F6
:1012F000B10429F780E090E0892B09F43ECE0E94EA
:10130000F700882309F439CE0E94000036CE8EE023
:101310000E94B3029C01A1E0BFEF0E94DB0A6F3F75
:10132000734081059105B4F58EE00E94B3029C01E3
:10133000A1E0BFEF0E94DB0AA30192010E94540AC0
:1013400021503F4F4F4F5F4F2115310509F40BCF0F
:1013500081E08093010180918001811106CF80910D
:101360007E0190917F018217930709F4FECE30939E
:101370007F0120937E012F3F310519F014F02FEFEC
:1013800030E037FF02C030E020E030937D01209351
:101390007C01EBCE2FEF30E0DBCF80E291E016CF87
:1013A00087E291E052CF8EE192E00C9402051F9308
:1013B000FC0199278827BC01E89411911032E9F3C8
:1013C000193010F01E30C8F31B3251F01D3249F4B1
:1013D000689406C00E94090A610F711D811D911D4C
:1013E000119110531A30B0F33EF49095809570959A
:1013F00061957F4F8F4F9F4F1F910895BB274A30B4
:1014000031F4992322F4BDE2909581959F4F0C947D
:101410001F0A592F482F372F262F660F771F881F37
:10142000991F660F771F881F991F620F731F841FF4
:10143000951F660F771F881F991F0895BB27FB0113
:101440005527AA27880F991FAA1FA41710F0A41BBD
:1014500083955051B9F7A05DAA3308F0A95DA19317
:10146000009779F7B111B1931192CB010C94410A15
:1014700091110C94510A803219F089508550C8F7A7
:101480000895DC01FC01672F71917723E1F7329712
:1014900004C07C916D9370836291AE17BF07C8F34F
:1014A0000895992788270895052E97FB1EF4009428
:1014B0000E946B0A57FD07D00E94AA0A07FC03D0BE
:1014C0004EF40C946B0A50954095309521953F4F02
:1014D0004F4F5F4F089590958095709561957F4F20
:1014E0008F4F9F4F08952F923F924F925F926F922E
:1014F0007F928F929F92AF92BF92CF92DF92EF92A4
:10150000FF920F931F93CF93DF93CDB7DEB7CA1B24
:10151000DB0B0FB6F894DEBF0FBECDBF09942A884F
:10152000398848885F846E847D848C849B84AA84F7
:10153000B984C884DF80EE80FD800C811B81AA8184
:10154000B981CE0FD11D0FB6F894DEBF0FBECDBF4F
:10155000ED010895A1E21A2EAA1BBB1BFD010DC0CF
:10156000AA1FBB1FEE1FFF1FA217B307E407F50753
:1015700020F0A21BB30BE40BF50B661F771F881F2F
:10158000991F1A9469F760957095809590959B01C5
:10159000AC01BD01CF010895A29FB001B39FC0016E
:1015A000A39F700D811D1124911DB29F700D811D8F
:1015B0001124911D08950E94CC0A332312F48A1B32
:1015C0009B0B0C94E50A0E94CC0AB7FF0895821B7E
:1015D000930B0895EE0FFF1F0590F491E02D0994F1
:1015E0000F931F93CF93DF938230910510F482E025
:1015F00090E0E0912602F091270230E020E0B0E098
:10160000A0E0309799F42115310509F44AC0281B50
:10161000390B24303105D8F58A819B81611571051C
:1016200089F1FB0193838283FE0111C040815181C6
:101630000281138148175907E0F04817590799F4B8
:10164000109761F012960C93129713961C93329692
:10165000CF01DF91CF911F910F9108950093260242
:1016600010932702F4CF2115310551F0421753078B
:1016700038F0A901DB019A01BD01DF01F801C1CFFA
:10168000EF01F9CF9093270280932602CDCFFE0180
:10169000E20FF31F819391932250310939832883FC
:1016A000D7CF2091240230912502232B41F42091A1
:1016B00004013091050130932502209324022091EA
:1016C0000201309103012115310541F42DB73EB7D8
:1016D0004091060150910701241B350BE091240233
:1016E000F0912502E217F307A0F42E1B3F0B2817F9
:1016F000390778F0AC014E5F5F4F2417350748F08B
:101700004E0F5F1F509325024093240281939193C3
:101710009FCFF0E0E0E09CCFCF93DF930097E9F01C
:10172000FC01329713821282A0912602B091270207
:10173000ED0130E020E01097A1F420813181820F8B
:10174000931F20912402309125022817390709F0B0
:1017500061C0F0932502E0932402DF91CF910895B8
:10176000EA01CE17DF07E8F54A815B819E0141154A
:101770005105B1F7E901FB83EA8349915991C40FFF
:10178000D51FEC17FD0761F4808191810296840FCB
:10179000951FE90199838883828193819B838A8342
:1017A000F0E0E0E012968D919C9113970097B9F5C7
:1017B0002D913C911197CD010296820F931F20919C
:1017C0002402309125022817390739F6309751F550
:1017D0001092270210922602B0932502A0932402B1
:1017E000BCCFD383C28340815181840F951FC8171A
:1017F000D90761F44E5F5F4F88819981480F591F67
:10180000518340838A819B81938382832115310593
:1018100009F0B0CFF0932702E09326029ECFFD019E
:10182000DC01C0CF13821282D7CFB0E0A0E0EBE1A1
:10183000FCE00C94750A8C01009751F4CB010E94D6
:10184000F00A8C01C801CDB7DEB7E0E10C94910A33
:10185000FC01E60FF71F9C0122503109E217F30744
:1018600008F49DC0D901CD91DC911197C617D70717
:1018700098F0C530D10530F3CE010497861797074D
:1018800008F3C61BD70B2297C193D1936D937C931A
:10189000CF010E948C0BD6CF5B01AC1ABD0A4C0164
:1018A0008C0E9D1EA0912602B0912702512C412C36
:1018B000F12CE12C109731F58091240290912502B2
:1018C0008815990509F05CC04616570608F058C0FF
:1018D0008091020190910301009741F48DB79EB76A
:1018E0004091060150910701841B950BE817F907F9
:1018F00008F055C0F0932502E0932402F9017183AA
:101900006083A0CF8D919C91119712966C90129745
:1019100013967C901397A815B90559F56C0142E010
:10192000C40ED11CCA14DB0420F1AC014A195B09B6
:10193000DA011296159780F0628273825183408398
:10194000D9016D937C93E114F10471F0D7011396E2
:10195000FC93EE93129776CF22968C0F9D1FF90180
:1019600091838083F301EFCFF0932702E093260267
:1019700069CF4816590608F42C017D01D3019ACF8E
:10198000CB010E94F00A7C01009749F0AE01B8013A
:101990000E94D20CC8010E948C0B870153CF10E02B
:1019A00000E050CFFB01DC0102C001900D924150DC
:1019B0005040D8F70895FB01DC018D91019080190A
:1019C0000110D9F3990B0895FB01DC0101900D92F0
:1019D0000020E1F7089510E0C2E6D0E004C0FE0167
:1019E0000E94EA0A2196C336D107C9F7F894FFCFBF
:1019F0000101000028028000000000002D018D0080
:101A0000BA007A01EB00C900DD000D0A00442A008B
:101A10004F4E004F4646005472616E670056616E2D
:101A200067004475206C696575207475204669727D
:101A300065626173653A2000547520646F6E67209B
:101A400073616E673A20004D61752064656E3A20BF
:021A5000000094
:00000001FF
