:100000000C9463000C948B000C948B000C948B006C
:100010000C948B000C948B000C948B000C948B0034
:100020000C948B000C948B000C948B000C948B0024
:100030000C948B000C948B000C948B000C948B0014
:100040000C94BB090C948B000C9489090C946309E3
:100050000C948B000C948B000C948B000C948B00F4
:100060000C948B000C948B000000000024002700EF
:100070002A0000000000250028002B0000000000DE
:1000800023002600290004040404040404040202DA
:100090000202020203030303030301020408102007
:1000A0004080010204081020010204081020000012
:1000B0000008000201000003040700000000000027
:1000C0000000050AB00E11241FBECFEFD8E0DEBF3E
:1000D000CDBF12E0A0E0B1E0E6EAF4E202C0059094
:1000E0000D92A031B107D9F722E0A0E1B2E001C042
:1000F0001D92AF3FB207E1F710E0C2E6D0E004C0C6
:100100002197FE010E942C10C136D107C9F70E9429
:10011000430A0C9446120C940000FC0124813581A2
:100120006217730720F480819181009729F410925F
:10013000290289E292E00895860F971F0895AF92F1
:10014000BF92CF92DF92EF92FF920F931F93CF93C4
:10015000DF936C017B018B01040F151FEB015E0126
:10016000AE18BF08C017D10759F06991D601ED91BB
:10017000FC910190F081E02DC6010995892B79F75A
:10018000C501DF91CF911F910F91FF90EF90DF900C
:10019000CF90BF90AF900895FC01538D448D252FD3
:1001A00030E0842F90E0821B930B541710F0CF9611
:1001B000089501970895FC01918D828D981761F043
:1001C000A28DAE0FBF2FB11D5D968C91928D9F5F5A
:1001D0009F73928F90E008958FEF9FEF0895FC0139
:1001E000918D828D981731F0828DE80FF11D858DEC
:1001F00090E008958FEF9FEF0895FC01918D228D7F
:10020000892F90E0805C9F4F821B91098F73992703
:1002100008958CE492E00E94FD0021E0892B09F40E
:1002200020E0822F089580E090E0892B29F00E9441
:10023000090181110C9400000895FC01A48DA80F00
:10024000B92FB11DA35ABF4F2C91848D90E0019618
:100250008F739927848FA689B7892C93A089B18938
:100260008C91837080648C93938D848D981306C0D9
:100270000288F389E02D80818F7D80830895EF923D
:10028000FF920F931F93CF93DF93EC0181E0888F50
:100290009B8D8C8D98131AC0E889F989808185FF20
:1002A00015C09FB7F894EE89FF896083E889F989C2
:1002B00080818370806480839FBF81E090E0DF91C4
:1002C000CF911F910F91FF90EF900895F62E0B8D17
:1002D00010E00F5F1F4F0F731127E02E8C8D8E11D2
:1002E0000CC00FB607FCFACFE889F989808185FF39
:1002F000F5CFCE010E941D01F1CFEB8DEC0FFD2F4C
:10030000F11DE35AFF4FF0829FB7F8940B8FEA89F3
:10031000FB8980818062CFCFCF93DF93EC01888D02
:100320008823B9F0AA89BB89E889F9898C9185FD70
:1003300003C0808186FD0DC00FB607FCF7CF8C91FE
:1003400085FFF2CF808185FFEDCFCE010E941D0198
:10035000E9CFDF91CF910895833081F028F4813087
:1003600099F08230A9F008958730A9F08830C9F05B
:100370008430B1F4809180008F7D03C08091800033
:100380008F7780938000089584B58F7784BD08951A
:1003900084B58F7DFBCF8091B0008F778093B000C4
:1003A00008958091B0008F7DF9CFCF93DF93282FF0
:1003B00030E0F901E255FF4F8491F901E656FF4F15
:1003C000D491F901EA57FF4FC491CC23A1F08111D8
:1003D0000E94AC01EC2FF0E0EE0FFF1FE458FF4F3E
:1003E000A591B491EC91ED2381E090E009F480E0D7
:1003F000DF91CF91089580E090E0FACF1F93CF93E3
:10040000DF93282F30E0F901E255FF4F8491F90185
:10041000E656FF4FD491F901EA57FF4FC491CC2320
:10042000A9F0162F81110E94AC01EC2FF0E0EE0F25
:10043000FF1FEE58FF4FA591B4918FB7F894EC9140
:10044000111108C0D095DE23DC938FBFDF91CF91CF
:100450001F910895DE2BF8CFCF93DF9390E0FC013E
:10046000E656FF4F24918A579F4FFC0184918823C1
:10047000C9F090E0880F991FFC01E859FF4FA59142
:10048000B491FC01EE58FF4FC591D49161110DC09C
:100490009FB7F8948C91209582238C938881282390
:1004A00028839FBFDF91CF910895623051F49FB7A9
:1004B000F8943C91822F809583238C93E8812E2B96
:1004C000EFCF8FB7F894EC912E2B2C938FBFEACF00
:1004D0001F93CF93DF93182FEB0161E00E942C0252
:1004E000209739F460E0812FDF91CF911F910C9418
:1004F000FE01CF3FD10511F461E0F5CFE12FF0E02F
:10050000E255FF4FE491E33031F140F4E130B1F0D6
:10051000E230E1F0C038D1057CF7E4CFE73029F1D3
:10052000E83059F1E430B1F7809180008062809327
:100530008000D0938B00C0938A0004C084B580688B
:1005400084BDC7BDDF91CF911F91089584B58062AE
:1005500084BDC8BDF7CF8091800080688093800003
:10056000D0938900C0938800EDCF8091B00080685F
:100570008093B000C093B300E5CF8091B00080625B
:100580008093B000C093B400DDCF8E508064809320
:100590007C0080917A00806480937A0080917A0058
:1005A00086FDFCCF809178009091790008952FB757
:1005B000F894609125027091260280912702909113
:1005C00028022FBF08950F931F930E94D7026093B4
:1005D00054027093550280935602909357028CE414
:1005E00092E00E94DB0097FF1DC00E94D70200919D
:1005F0005402109155022091560230915702601B0F
:10060000710B820B930B00915002109151022091BB
:100610005202309153026017710782079307F8F274
:100620008FEF9FEF1F910F9108958F929F92AF923E
:10063000BF92CF92DF92EF92FF920F931F93CF93CF
:10064000DF9380910701882309F495C080913D02D2
:10065000882309F4A4C00E94D702C0903702D0902A
:100660003802E0903902F0903A029B01AC012C195B
:100670003D094E095F0969017A013EE5C31631E083
:10068000D306E104F10408F42FC16093370270939C
:1006900038028093390290933A021091360281E039
:1006A00018271093360280913B0290913C020196EC
:1006B00090933C0280933B0280914402D09142028D
:1006C000C0914302882399F18FE00E94C5029C01EA
:1006D000A1E0BFEF0E940910D0E0613071408C4F63
:1006E0009F4F0CF446C08FE00E94C5029C01A1E020
:1006F000BFEF0E940910DFEF6F3F73408105910546
:10070000C4F58FE00E94C5029C01A1E0BFEF0E94EA
:1007100009102FEF33E040E050E00E945B0FDA0158
:10072000C90181509F4FAF4FBF4FD82FC92F112301
:1007300011F11091000160E070E0112311F06D2FB4
:100740007C2F89E00E946802112311F0D0E0C0E004
:100750006D2F7C2F8AE0DF91CF911F910F91FF9039
:10076000EF90DF90CF90BF90AF909F908F900C94C0
:100770006802C0E0DCCF60E089E00E94FE0160E03A
:100780008AE0DF91CF911F910F91FF90EF90DF9062
:10079000CF90BF90AF909F908F900C94FE0180916E
:1007A0004402882309F4ADC08FE00E94C5029C0179
:1007B000A1E0BFEF0E940910D0E0C0E061307140BD
:1007C0008C4F9F4F14F18FE00E94C5029C01A1E065
:1007D000BFEF0E940910CFEFD0E06F3F734081055B
:1007E00091059CF48FE00E94C5029C01A1E0BFEF3F
:1007F0000E9409102FEF33E040E050E00E945B0FB1
:1008000021503F4F4F4F5F4FE9016FEF70E082E1A2
:100810000E9468021091000160E070E01111BE01B9
:1008200089E00E946802BE01112311F060E070E0CF
:100830008AE00E9468020E94D7026B017C01A091AD
:100840001002B0911102AC17BD0709F44DC04091E0
:100850001202509113026091140270911502411519
:10086000510561057105A1F146015C01841A950AE3
:10087000A60AB70AA50194010E94850F00911802EB
:100880001091190220911A0230911B02DC01CB0158
:10089000800F911FA21FB31F80931802909319021B
:1008A000A0931A02B0931B0280911C0290911D022A
:1008B000A0911E02B0911F02880E991EAA1EBB1E97
:1008C00080921C0290921D02A0921E02B0921F0202
:1008D000D0931102C0931002C0921202D092130260
:1008E000E0921402F0921502DF91CF911F910F91C7
:1008F000FF90EF90DF90CF90BF90AF909F908F9040
:100900000895C0914202D091430270E060E07FCF31
:10091000FC0101900020E9F73197AF01481B590B0A
:10092000BC018CE492E00C949F00CF93DF93FC0118
:1009300044815581608171818CE492E00E949F0026
:10094000EC0180E291E00E9488048C0F9D1FDF91F2
:10095000CF910895CF93DF93D0E0C0E0009719F0D6
:100960000E948804EC0180E291E00E9488048C0FD0
:100970009D1FDF91CF9108958F929F92AF92BF926A
:10098000CF92DF92EF92FF920F931F93CF93DF935B
:10099000CDB7DEB7A1970FB6F894DEBF0FBECDBFBF
:1009A0006C01092E000CEE08FF0897FF41C06DE2B4
:1009B0008CE492E00E943F018C0122273327A90199
:1009C0002C193D094E095F0919A2CE0181967C01BF
:1009D0009AE0892E912CA12CB12CCA01B901A50154
:1009E00094010E94C40F605DF70162937F0121159D
:1009F00031054105510589F790E080E0309719F005
:100A0000CF010E948804800F911FA1960FB6F89421
:100A1000DEBF0FBECDBFDF91CF911F910F91FF9031
:100A2000EF90DF90CF90BF90AF909F908F90089500
:100A3000A701960119A28E010F5D1F4F8AE0C82EF3
:100A4000D12CE12CF12CCA01B901A70196010E9419
:100A5000C40F605DF80162938F01211531054105D6
:100A6000510589F790E080E0309779F2CF010E943C
:100A70008804CBCFCF93DF93FC01248135816217AB
:100A8000730788F49B01C081D1816AE270E0CE01D6
:100A9000820F931F0E941D12009729F08C1B9D0B43
:100AA000DF91CF9108958FEF9FEFFACFFC01248162
:100AB0003581FB014481558124173507E1F4FC01A0
:100AC00080819181FB01608171810097D1F0611576
:100AD0007105A1F4232BC1F0FC01808190E008C0D6
:100AE000232B91F0FB01808190E0919581959109F4
:100AF00021E0892B09F020E0822F08950E9428121E
:100B0000F7CF6115710561F721E0F6CFAF92BF9283
:100B1000CF92DF92EF92FF920F931F93CF93DF93C9
:100B2000DC01CD90DC901197C114D10439F01496FA
:100B3000CD91DC918C017601209761F4DF91CF910A
:100B40001F910F91FF90EF90DF90CF90BF90AF90EB
:100B5000089575015701BFEFAB1ABB0AF7018081F9
:100B6000082E000C990B0E943F0F892B91F72197BB
:100B7000CC0DDD1D8881082E000C990B0E943F0FC3
:100B8000892B29F0CE15DF0510F02197F3CFAE01A8
:100B90004F5F5F4F4E195F09D80115965C934E93D6
:100BA0001497CE14DF0420F4B701C6010E9414127A
:100BB000D801ED91FC91119714968D919C91E80FBD
:100BC000F91F1082BBCF0F931F93CF93DF93EC01DC
:100BD00088819981009759F02A813B812617370730
:100BE00030F081E0DF91CF911F910F9108958B013B
:100BF0006F5F7F4F0E945711009759F09983888348
:100C00001B830A832C813D81232B59F7FC01108221
:100C1000E8CF80E0E7CFEF92FF920F931F93CF933F
:100C2000DF936115710541F480E0DF91CF911F9151
:100C30000F91FF90EF90089541155105B1F07B01A0
:100C4000EC010C811D81040F151FB8010E94E30502
:100C5000882351F3288139818C819D81B701820FCE
:100C6000931F0E9431121D830C8381E0DECFCF934E
:100C7000DF93EC0188819981009711F00E94CE10DA
:100C8000198218821D821C821B821A82DF91CF91E9
:100C90000895CF93DF93EC01FB0101900020E9F769
:100CA0003197AF01461B570B0E940B06811103C001
:100CB000CE010E943706CE01DF91CF910895CF93E8
:100CC000DF93EC01FB0144815581608171810E94B9
:100CD0000B06811103C0CE010E943706CE01DF91C1
:100CE000CF910895EF92FF920F931F93CF93DF93CD
:100CF000EC017B018A01BA010E94E30581110BC05E
:100D0000CE010E943706CE01DF91CF911F910F9146
:100D1000FF90EF9008951D830C83B701888199811E
:100D20000E943112F0CFFB0101900020E9F73197CA
:100D3000AF01461B570B0C9472060F931F93CF9372
:100D4000DF93CDB7DEB762970FB6F894DEBF0FBE64
:100D5000CDBF8C01CB01F801118210821382128267
:100D6000158214824AE0BE016F5F7F4F0E94E30E3E
:100D7000BE016F5F7F4FC8010E94930662960FB657
:100D8000F894DEBF0FBECDBFDF91CF911F910F91C1
:100D90000895CF93DF93EC01FB018617970749F085
:100DA000608171816115710541F0448155810E9416
:100DB0007206CE01DF91CF9108950E943706F9CFD8
:100DC000FC01118210821382128215821482FB01AF
:100DD00001900020E9F73197AF01461B570B0C94A7
:100DE0007206AF92BF92CF92DF92EF92FF920F9373
:100DF0001F93CF93DF936C015B017A018901241764
:100E0000350720F48F2D7901042F182F62E271E04D
:100E1000C6010E94E006D5011496CD91DC91EC1636
:100E2000FD06E0F40C171D0708F4E801D501ED916B
:100E3000FC911197EC0FFD1F108110826D917C9138
:100E40006E0D7F1DC60161157105A1F00E9493060C
:100E5000F50180819181C80FD91F1883C601DF91E8
:100E6000CF911F910F91FF90EF90DF90CF90BF90A7
:100E7000AF9008950E943706EBCFFC0180819181ED
:100E8000009711F00C94CE100895CF93DF93CDB757
:100E9000DEB7A4970FB6F894DEBF0FBECDBF80912A
:100EA00044026091420270914302882379F18FE0FD
:100EB0000E94C5029C01A1E0BFEF0E9409106130B1
:100EC00071408C4F9F4F0CF41CC18FE00E94C502F3
:100ED0009C01A1E0BFEF0E9409106F3F73408105A4
:100EE00091050CF011C18FE00E94C5029C01A1E0A8
:100EF000BFEF0E9409102FEF33E040E050E00E9466
:100F00005B0F21503F4F4F4F5F4FB901CE014996C4
:100F10000E949D066091440270E0CE0143960E94BB
:100F20009D066091000170E0CE010D960E949D0625
:100F30006091070170E0CE0107960E949D0663E272
:100F400071E0CE0101960E94E006BE01695F7F4F0D
:100F5000CE0101960E945F0664E271E00E9449069C
:100F6000BE01635F7F4F0E945F0664E271E00E94F2
:100F70004906BE016D5E7F4F0E945F0664E271E02C
:100F80000E944906BE01675E7F4F0E945F0661E2D4
:100F900071E00E94490618A21F8E1AA219A21CA273
:100FA0001BA2BC01CE014F960E94C906CE0101963C
:100FB0000E943D07CE0107960E943D07CE010D9687
:100FC0000E943D07CE0143960E943D07CE014996FF
:100FD0000E943D072091F3023091F40243E050E07B
:100FE0006FEE72E0CE0149960E94F10623E030E0F8
:100FF00042E050E06FEE72E0CE0143960E94F106AF
:1010000022E030E041E050E06FEE72E0CE010D965C
:101010000E94F10621E030E050E040E06FEE72E027
:10102000CE0107960E94F10663E271E0CE010196BF
:101030000E94E006BE01695F7F4FCE0101960E94CB
:101040005F0664E271E00E944906BE01635F7F4F64
:101050000E945F0664E271E00E944906BE016D5E77
:101060007F4F0E945F0664E271E00E944906BE0164
:10107000675E7F4F0E945F0661E271E00E94490651
:10108000BC0189EE92E00E94C906CE0101960E9441
:101090003D07CE0107960E943D07CE010D960E94A6
:1010A0003D07CE0143960E943D07CE0149960E941E
:1010B0003D0765EF72E0CE014F960E945605811103
:1010C00013C069EE72E0CE014F960E945605811161
:1010D0000BC0BE01615E7F4F85EF92E00E94C906A2
:1010E000CE014F960E949504CE014F960E943D0777
:1010F000A4960FB6F894DEBF0FBECDBFDF91CF919F
:10110000089570E060E002CF6FEF70E0FFCECF9205
:10111000DF92EF92FF92CF93DF93CDB7DEB7E397E5
:101120000FB6F894DEBF0FBECDBF0E94D7026B0191
:101130007C0120911C0230911D0240911E025091B1
:101140001F02211531054105510509F4B7C0609111
:1011500018027091190280911A0290911B020E944C
:10116000C40F30931702209316021BA21AA21DA2CD
:101170001CA21FA21EA22AE0AE014F5F5F4FC70153
:10118000B6010E94030FBE016F5F7F4FCE018296B2
:101190000E94930666E271E0CE0101960E94E0068D
:1011A000BE016E5D7F4FCE0101960E945F0661E237
:1011B00071E00E94490619A618A61BA61AA61DA62C
:1011C0001CA6BC01CE0188960E94C906CE010196DC
:1011D0000E943D07CE0182960E943D076091160253
:1011E00070911702CE0101960E949D0669E271E09E
:1011F000CE0182960E94E006BE016F5F7F4FCE0156
:1012000082960E945F0661E271E00E9449061FA675
:101210001EA619AA18AA1BAA1AAABC01CE018E964C
:101220000E94C906CE0182960E943D07CE0101961A
:101230000E943D078091160290911702845D9E4F97
:101240000E94AA04CE0188960E949504CE018E9633
:101250000E94950481E08093490210921802109236
:10126000190210921A0210921B0210921C02109284
:101270001D0210921E0210921F0210921202109272
:101280001302109214021092150210921102109281
:101290001002CE018E960E943D07CE0188960E94D4
:1012A0003D07E3960FB6F894DEBF0FBECDBFDF91CA
:1012B000CF91FF90EF90DF90CF900895109217029A
:1012C0001092160252CF1F920F920FB60F92112456
:1012D0002F933F934F935F936F937F938F939F933E
:1012E000AF93BF93EF93FF938CE492E00E941D01B4
:1012F000FF91EF91BF91AF919F918F917F916F91EE
:101300005F914F913F912F910F900FBE0F901F90C3
:1013100018951F920F920FB60F9211242F938F934F
:101320009F93EF93FF93E0915C02F0915D028081C7
:10133000E0916202F091630282FD1BC09081809176
:1013400065028F5F8F7320916602821741F0E091F2
:101350006502F0E0E45BFD4F958F80936502FF919D
:10136000EF919F918F912F910F900FBE0F901F9033
:1013700018958081F4CF1F920F920FB60F9211240F
:101380002F933F938F939F93AF93BF9380912502A9
:1013900090912602A0912702B09128023091240258
:1013A00023E0230F2D3758F50196A11DB11D209381
:1013B00024028093250290932602A0932702B093E3
:1013C00028028091200290912102A0912202B091E6
:1013D00023020196A11DB11D80932002909321024A
:1013E000A0932202B0932302BF91AF919F918F915E
:1013F0003F912F910F900FBE0F901F90189526E8E8
:10140000230F0296A11DB11DD2CFECE4F2E01382AE
:10141000128288EE93E0A0E0B0E084839583A683F7
:10142000B78382E191E09183808385EC90E095879A
:10143000848784EC90E09787868780EC90E0918B9E
:10144000808B81EC90E0938B828B82EC90E0958B8B
:10145000848B86EC90E0978B868B118E128E138E88
:10146000148E62E271E085EF92E00E94E00662E293
:1014700071E08FEE92E00E94E00662E271E089EE98
:1014800092E00C94E006CF93DF93CDB7DEB7689778
:101490000FB6F894DEBF0FBECDBF789484B58260DE
:1014A00084BD84B5816084BD85B5826085BD85B508
:1014B000816085BD80916E00816080936E00109286
:1014C0008100809181008260809381008091810001
:1014D0008160809381008091800081608093800092
:1014E0008091B10084608093B1008091B0008160F0
:1014F0008093B00080917A00846080937A0080911C
:101500007A00826080937A0080917A008160809373
:101510007A0080917A00806880937A001092C100EE
:1015200060E08FE00E942C0260E08EE00E942C02BE
:1015300062E08DE00E942C0262E08CE00E942C02AE
:1015400061E082E10E942C0261E089E00E942C02AD
:1015500061E08AE00E942C02E0915C02F0915D0261
:1015600082E08083E0915802F09159021082E0916C
:101570005A02F0915B028FEC808310926402E0913A
:101580006002F091610286E08083E0915E02F0915A
:101590005F02808180618083E0915E02F0915F0252
:1015A000808188608083E0915E02F0915F0280819B
:1015B00080688083E0915E02F0915F0280818F7D80
:1015C00080838DE00E94D501909335028093340290
:1015D0008CE00E94D50190932F0280932E0260E050
:1015E00089E00E94FE0160E08AE00E94FE010E9404
:1015F000D70260934502709346028093470290930E
:10160000480244244A9493E0592E612C712C08EE30
:1016100013E0332433948CE492E00E94FD0018160A
:1016200019060CF0B8C162E271E0CE0143960E9447
:10163000E0060E94E30297FD0FC08A30910561F039
:1016400089831A8241E050E0BE016F5F7F4FCE0177
:1016500043960E940B06EDCFCE0143960E9486056D
:101660008F89988D049708F4ACC070E060E0CE01DB
:1016700043960E948D00FC018081803509F4A1C051
:10168000D0900701A0900001B0904402E090420287
:10169000F090430270E060E0CE0143960E948D001E
:1016A000FC01C08081E0F1E3CF1280E0809307016C
:1016B00061E070E0CE0143960E948D00FC0191E054
:1016C0008081813309F090E09093000162E070E046
:1016D000CE0143960E948D00FC0191E08081813310
:1016E00009F090E0909344022F89388D2430310521
:1016F00020F143E050E0BE016D5E7F4FCE010196C8
:101700000E94F106CE0101960E9486058D819E8180
:10171000892B79F089819A81009709F430C10E9460
:10172000BC0E6F3F710509F020F470934302609383
:101730004202CE0101960E943D07DD2049F021E3DF
:10174000C21631F080914902811102C00E948708BF
:1017500080910701D8120FC090910001A9120BC00F
:1017600090914402B91207C0209142023091430285
:10177000E216F30609F1882371F0309206010E9407
:10178000D70260934502709346028093470290937C
:10179000480210924902BE016D5E7F4F8FEE92E0CB
:1017A0000E94C90681E591E00E948804CE0143961B
:1017B0000E9495040E941503CE0143960E943D07A6
:1017C0002ACF6EE471E0CE0101960E94E0064D81C1
:1017D0005E818F89988D8417950778F08B899C8915
:1017E000009759F069817A816115710531F00E9485
:1017F0003812FF24F394892B09F0F12CCE010196C5
:101800000E943D07FF20C1F270E060E0CE014396E8
:101810000E943A0501965C01BC01CE0143960E94EC
:101820003A054C016C013FEFC31AD30AB601CE0151
:1018300043960E943A057C01019609F4BDCF9401BC
:10184000A501BE016D5E7F4FCE010D960E94F1068F
:101850009701A601BE016D5E7F4FCE0107960E94E3
:10186000F1062F89388DA7014F5F5F4FBE016D5E76
:101870007F4FCE0101960E94F10689899A89892BB2
:1018800051F067E671E08D859E850E942812FF2445
:10189000F394892B09F0F12CF09205018F81988542
:1018A000009709F470C00E94BC0E609F9001619F78
:1018B000300D709F300D11243093040120930301EB
:1018C00089819A81009709F462C00E94BC0E609FD2
:1018D0009001619F300D709F300D112430930201F3
:1018E00020930101FF2091F0309206010E94D7025F
:1018F000609345027093460280934702909348029A
:1019000010923D0210923C0210923B0289E691E057
:101910000E9488048091050181111FC28FE391E02C
:101920000E94880486EF91E00E9488048091030160
:1019300090910401B8010E94F50FCB010E94BC04F4
:1019400081E092E00E94880480910101909102015F
:10195000B8010E94F50FCB010E94BC048DE092E01B
:101960000E94AA04CE0101960E943D07CE0107966F
:101970000E943D07CE010D960E943D071DCF60E0FD
:1019800070E0CB01CECE60E070E0CB018ECF60E0A6
:1019900070E0CB019CCF8EE00E94C5029C01A1E0CB
:1019A000BFEF0E940910613071408C4F9F4F0CF0C7
:1019B000E4C01092070180914902811102C00E9487
:1019C00087080E944507F12CE12CF0924B02E0922F
:1019D0004A028DE00E94D5017C01892BB1F58091EE
:1019E000340290913502019781F50E94D7028090D0
:1019F000300290903102A0903202B0903302681908
:101A000079098A099B096333710581059105E8F01D
:101A10008091440291E089278093440284E791E019
:101A20000E94880480914402882309F405C18CE354
:101A300091E00E94AA040E94D70260933002709342
:101A400031028093320290933302F0923502E09299
:101A500034028CE00E94D5017C01892BB1F5809184
:101A60002E0290912F02019781F50E94D70280905B
:101A70002A0290902B02A0902C02B0902D0268199F
:101A800079098A099B096333710581059105E8F09D
:101A90008091000191E089278093000183E891E023
:101AA0000E94880480910001882309F4C8C083E45F
:101AB00091E00E94AA040E94D70260932A027093C8
:101AC0002B0280932C0290932D02F0922F02E09231
:101AD0002E0280910701882311F18091050188234E
:101AE000F1F00E94D70220913D02222309F4AAC0FE
:101AF00020913B0230913C022A30310584F0109253
:101B00003D02109206016093450270934602809355
:101B10004702909348028DE891E00E94AA040E9437
:101B200015030E94D702C0903E02D0903F02E09081
:101B30004002F09041026C197D098E099F096233C1
:101B400071058105910560F00E94D70260933E0205
:101B500070933F0280934002909341020E94450798
:101B600080E090E0892B09F454CD0E94090188237C
:101B700009F44DCD0E9400004ACD8EE00E94C502BE
:101B80009C01A1E0BFEF0E9409106F3F73408105E7
:101B900091050CF04DC08EE00E94C5029C01A1E0B1
:101BA000BFEF0E940910A30192010E945B0F215018
:101BB0003F4F4F4F5F4F7901232B09F4FACEC0906E
:101BC0004A02D0904B02CE14DF0489F081E080936A
:101BD000070110924902809306010E94D702609388
:101BE0004502709346028093470290934802809189
:101BF000440281111AC0CE14DF04B9F0F0924B02F6
:101C0000E0924A023E2D2F2DFFEFEF16F10419F05E
:101C100014F03FEF20E0832F922F97FF02C090E057
:101C200080E090934302809342020E944507CDCE0C
:101C3000EE24EA94F12CC3CF8FE391E0FACE89E44D
:101C400091E037CFC0904502D0904602E090470225
:101C5000F09048029B01AC012C193D094E095F0927
:101C600069017A0120910601222309F444C02091E0
:101C70000301309104014901032E000CAA08BB089E
:101C8000C814D904EA04FB0408F449CF41E04093A6
:101C90003D0210923C0210923B0260933702709317
:101CA00038028093390290933A0210923602C901A9
:101CB000B8010E94F50FCE0107960E949D0665EAC5
:101CC00071E0CE0101960E94E006BE01695F7F4F80
:101CD000CE0101960E945F0660EB71E00E9449060A
:101CE0000E949504CE0101960E943D07CE01079601
:101CF0000E943D0714CF209101013091020149015A
:101D0000032E000CAA08BB08C814D904EA04FB047B
:101D100008F405CF41E040930601609345027093BB
:101D200046028093470290934802C901B8010E947D
:101D3000F50FCE0107960E949D066EEC71E0CE0174
:101D400001960E94E006BE01695F7F4FCE010196B9
:101D50000E945F066AED71E0C1CF8CE391E0E0CDB7
:101D600089EE92E00E943D078FEE92E00E943D07CF
:101D700085EF92E00C943D071F93FC01992788277B
:101D8000BC01E89411911032E9F3193010F01E30C3
:101D9000C8F31B3251F01D3249F4689406C00E940A
:101DA000EE0E610F711D811D911D119110531A309E
:101DB000B0F33EF490958095709561957F4F8F4F6D
:101DC0009F4F1F910895BB274A3031F4992322F485
:101DD000BDE2909581959F4F0C94260F592F482F67
:101DE000372F262F660F771F881F991F660F771FC3
:101DF000881F991F620F731F841F951F660F771F1F
:101E0000881F991F0895BB27FA01A62F6217710535
:101E100081059105330B30FB66F0AA27660F771F0B
:101E2000881F991FAA1FA21710F0A21B6395385094
:101E3000A9F7A05DAA3308F0A95DA19336F7B11107
:101E4000B1931082CA010C94480FBB27FB015527A0
:101E5000AA27880F991FAA1FA41710F0A41B839507
:101E60005051B9F7A05DAA3308F0A95DA19300977E
:101E700079F7B111B1931192CB010C94480F9111E4
:101E80000C94580F803219F089508550C8F7089586
:101E9000DC01FC01672F71917723E1F7329704C0D1
:101EA0007C916D9370836291AE17BF07C8F308955C
:101EB000992788270895052E97FB1EF400940E9409
:101EC000720F57FD07D00E94C40F07FC03D04EF4D9
:101ED0000C94720F50954095309521953F4F4F4F80
:101EE0005F4F089590958095709561957F4F8F4FC6
:101EF0009F4F08950E94E60FA59F900DB49F900DEF
:101F0000A49F800D911D11240895B7FF0C947A0FA2
:101F10000E947A0F821B930B08952F923F924F924B
:101F20005F926F927F928F929F92AF92BF92CF9269
:101F3000DF92EF92FF920F931F93CF93DF93CDB772
:101F4000DEB7CA1BDB0B0FB6F894DEBF0FBECDBFEA
:101F500009942A88398848885F846E847D848C84BB
:101F60009B84AA84B984C884DF80EE80FD800C81C4
:101F70001B81AA81B981CE0FD11D0FB6F894DEBFA7
:101F80000FBECDBFED010895A1E21A2EAA1BBB1B07
:101F9000FD010DC0AA1FBB1FEE1FFF1FA217B30735
:101FA000E407F50720F0A21BB30BE40BF50B661F4B
:101FB000771F881F991F1A9469F76095709580950F
:101FC00090959B01AC01BD01CF010895A29FB00186
:101FD000B39FC001A39F700D811D1124911DB29F5D
:101FE000700D811D1124911D089597FB072E16F485
:101FF000009407D077FD09D00E94181007FC05D087
:102000003EF4909581959F4F0895709561957F4F0F
:1020100008950E94E60F332312F48A1B9B0B0C9445
:1020200013100E94E60FB7FF0895821B930B0895CB
:10203000AA1BBB1B51E107C0AA1FBB1FA617B707EE
:1020400010F0A61BB70B881F991F5A95A9F780950A
:102050009095BC01CD010895EE0FFF1F0590F491FE
:10206000E02D09940F931F93CF93DF938230910556
:1020700010F482E090E0E091FD02F091FE0230E089
:1020800020E0B0E0A0E0309799F42115310509F483
:102090004AC0281B390B24303105D8F58A819B8131
:1020A0006115710589F1FB0193838283FE0111C0E3
:1020B000408151810281138148175907E0F0481788
:1020C000590799F4109761F012960C931297139692
:1020D0001C933296CF01DF91CF911F910F910895FC
:1020E0000093FD021093FE02F4CF2115310551F04B
:1020F0004217530738F0A901DB019A01BD01DF0146
:10210000F801C1CFEF01F9CF9093FE028093FD0259
:10211000CDCFFE01E20FF31F81939193225031093D
:1021200039832883D7CF2091FB023091FC02232BE7
:1021300041F420910A0130910B013093FC0220936D
:10214000FB0220910801309109012115310541F46C
:102150002DB73EB740910C0150910D01241B350B5A
:10216000E091FB02F091FC02E217F307A0F42E1BB2
:102170003F0B2817390778F0AC014E5F5F4F2417EB
:10218000350748F04E0F5F1F5093FC024093FB024F
:10219000819391939FCFF0E0E0E09CCFCF93DF93CA
:1021A0000097E9F0FC01329713821282A091FD02A0
:1021B000B091FE02ED0130E020E01097A1F4208103
:1021C0003181820F931F2091FB023091FC0228176E
:1021D000390709F061C0F093FC02E093FB02DF9144
:1021E000CF910895EA01CE17DF07E8F54A815B81B8
:1021F0009E0141155105B1F7E901FB83EA8349913D
:102200005991C40FD51FEC17FD0761F480819181AE
:102210000296840F951FE9019983888382819381B7
:102220009B838A83F0E0E0E012968D919C91139756
:102230000097B9F52D913C911197CD010296820F2F
:10224000931F2091FB023091FC022817390739F6C1
:10225000309751F51092FE021092FD02B093FC02ED
:10226000A093FB02BCCFD383C28340815181840FF2
:10227000951FC817D90761F44E5F5F4F8881998118
:10228000480F591F518340838A819B8193838283A6
:102290002115310509F0B0CFF093FE02E093FD0265
:1022A0009ECFFD01DC01C0CF13821282D7CFB0E0F8
:1022B000A0E0EDE5F1E10C948F0F8C01009751F453
:1022C000CB010E9432108C01C801CDB7DEB7E0E12E
:1022D0000C94AB0FFC01E60FF71F9C012250310953
:1022E000E217F30708F49DC0D901CD91DC91119755
:1022F000C617D70798F0C530D10530F3CE01049743
:102300008617970708F3C61BD70B2297C193D19363
:102310006D937C93CF010E94CE10D6CF5B01AC1A97
:10232000BD0A4C018C0E9D1EA091FD02B091FE02D3
:10233000512C412CF12CE12C109731F58091FB02AE
:102340009091FC028815990509F05CC04616570665
:1023500008F058C08091080190910901009741F45C
:102360008DB79EB740910C0150910D01841B950BC8
:10237000E817F90708F055C0F093FC02E093FB0260
:10238000F90171836083A0CF8D919C911197129672
:102390006C90129713967C901397A815B90559F570
:1023A0006C0142E0C40ED11CCA14DB0420F1AC0164
:1023B0004A195B09DA011296159780F062827382DE
:1023C00051834083D9016D937C93E114F10471F042
:1023D000D7011396FC93EE93129776CF22968C0F2B
:1023E0009D1FF90191838083F301EFCFF093FE02EB
:1023F000E093FD0269CF4816590608F42C017D01CF
:10240000D3019ACFCB010E9432107C01009749F092
:10241000AE01B8010E941412C8010E94CE108701BB
:1024200053CF10E000E050CFFB01DC0102C001906F
:102430000D9241505040D8F70895FC0181918617C4
:1024400021F08823D9F7992708953197CF0108956E
:10245000FB01DC018D91019080190110D9F3990BDA
:102460000895FB01DC0101900D920020E1F7089531
:10247000FB01DC014150504030F08D9101908019FA
:1024800019F40020B9F7881B990B089510E0C2E6F3
:10249000D0E004C0FE010E942C102196C336D10763
:0624A000C9F7F894FFCF1C
:1024A60001E09360E30101010000FF0280000000EB
:1024B60000003F019F00CC008C01FD00DB00EF0017
:1024C6000D0A00442A00542A00492A0043756F6EFB
:1024D6006720646F2073616E673A20004F4E004F8D
:1024E6004646005472616E670056616E6700502A58
:1024F600004475206C69657520747520466972659F
:10250600626173653A20003100506F6D6F646F72BF
:102516006F3A2000547520646F6E672073616E6792
:102526003A20004D61752064656E3A200042617460
:10253600206461752074686F69206769616E206E1A
:102546006768692100446120686F63206475200014
:1025560020706875742E2044656E20626174206454
:102566006175206E686170206E6861792100446132
:10257600206E676869206475200020706875742E67
:102586002051756179206C61692063686520646FEC
:1025960020686F632100207C2053747564793A208B
:1025A6000073207C20427265616B3A200073000044
:00000001FF
